{
    "_format": "hh-sol-artifact-1",
    "contractName": "IoPRegistration",
    "sourceName": "contracts/IopRegistration.sol",
    "abi": [
        {
            "anonymous": false,
            "inputs": [
                {
                    "indexed": true,
                    "internalType": "address",
                    "name": "stkX",
                    "type": "address"
                },
                {
                    "indexed": false,
                    "internalType": "bytes32",
                    "name": "pStkX",
                    "type": "bytes32"
                },
                {
                    "indexed": false,
                    "internalType": "bytes32",
                    "name": "skStkX",
                    "type": "bytes32"
                },
                {
                    "indexed": false,
                    "internalType": "bytes32",
                    "name": "pidStkX",
                    "type": "bytes32"
                },
                {
                    "indexed": false,
                    "internalType": "uint256",
                    "name": "mXR",
                    "type": "uint256"
                }
            ],
            "name": "StakeholderRegistered",
            "type": "event"
        },
        {
            "inputs": [
                {
                    "internalType": "string",
                    "name": "idStkX",
                    "type": "string"
                },
                {
                    "internalType": "string",
                    "name": "pwStkX",
                    "type": "string"
                }
            ],
            "name": "registerStakeholder",
            "outputs": [],
            "stateMutability": "nonpayable",
            "type": "function"
        },
        {
            "inputs": [
                {
                    "internalType": "address",
                    "name": "",
                    "type": "address"
                }
            ],
            "name": "stakeholders",
            "outputs": [
                {
                    "internalType": "bytes32",
                    "name": "pStkX",
                    "type": "bytes32"
                },
                {
                    "internalType": "bytes32",
                    "name": "skStkX",
                    "type": "bytes32"
                },
                {
                    "internalType": "bytes32",
                    "name": "pidStkX",
                    "type": "bytes32"
                },
                {
                    "internalType": "bytes32",
                    "name": "cStkX",
                    "type": "bytes32"
                },
                {
                    "internalType": "uint256",
                    "name": "mXR",
                    "type": "uint256"
                }
            ],
            "stateMutability": "view",
            "type": "function"
        },
        {
            "inputs": [
                {
                    "internalType": "string",
                    "name": "idStkX",
                    "type": "string"
                },
                {
                    "internalType": "string",
                    "name": "pwStkX",
                    "type": "string"
                }
            ],
            "name": "verifyStakeholder",
            "outputs": [
                {
                    "internalType": "bool",
                    "name": "",
                    "type": "bool"
                }
            ],
            "stateMutability": "view",
            "type": "function"
        }
    ],
    "bytecode": "0x608060405234801561001057600080fd5b5061094a806100206000396000f3fe608060405234801561001057600080fd5b50600436106100415760003560e01c80633c96f47014610046578063c07cfca914610062578063eaa07da214610096575b600080fd5b610060600480360381019061005b91906104f4565b6100c6565b005b61007c600480360381019061007791906104cb565b6102ee565b60405161008d9594939291906106e6565b60405180910390f35b6100b060048036038101906100ab91906104f4565b610324565b6040516100bd91906106cb565b60405180910390f35b60004233846040516020016100dd93929190610692565b6040516020818303038152906040528051906020012060001c90506000838260405160200161010d92919061066a565b604051602081830303815290604052805190602001209050600083604051602001610138919061061e565b6040516020818303038152906040528051906020012082186040516020016101609190610603565b60405160208183030381529060405280519060200120905060007f1234567890abcdef1234567890abcdef1234567890abcdef1234567890abcdef60001b82186040516020016101b09190610603565b60405160208183030381529060405280519060200120905060008686866040516020016101df93929190610635565b6040516020818303038152906040528051906020012090506040518060a00160405280848152602001838152602001858152602001828152602001868152506000803373ffffffffffffffffffffffffffffffffffffffff1673ffffffffffffffffffffffffffffffffffffffff16815260200190815260200160002060008201518160000155602082015181600101556040820151816002015560608201518160030155608082015181600401559050503373ffffffffffffffffffffffffffffffffffffffff167fcaccd22ae915e51399f592dbeaf998d27985a5bd2824fff108a9274c9d35db9e848487896040516102dd9493929190610739565b60405180910390a250505050505050565b60006020528060005260406000206000915090508060000154908060010154908060020154908060030154908060040154905085565b6000806000803373ffffffffffffffffffffffffffffffffffffffff1673ffffffffffffffffffffffffffffffffffffffff1681526020019081526020016000206040518060a001604052908160008201548152602001600182015481526020016002820154815260200160038201548152602001600482015481525050905060008482608001516040516020016103bd92919061066a565b6040516020818303038152906040528051906020012090506000846040516020016103e8919061061e565b6040516020818303038152906040528051906020012082186040516020016104109190610603565b60405160208183030381529060405280519060200120905082600001518114156104405760019350505050610448565b600093505050505b92915050565b600061046161045c846107af565b61077e565b90508281526020810184848401111561047957600080fd5b610484848285610847565b509392505050565b60008135905061049b816108fd565b92915050565b600082601f8301126104b257600080fd5b81356104c284826020860161044e565b91505092915050565b6000602082840312156104dd57600080fd5b60006104eb8482850161048c565b91505092915050565b6000806040838503121561050757600080fd5b600083013567ffffffffffffffff81111561052157600080fd5b61052d858286016104a1565b925050602083013567ffffffffffffffff81111561054a57600080fd5b610556858286016104a1565b9150509250929050565b61057161056c826107f5565b610889565b82525050565b61058081610807565b82525050565b61058f81610813565b82525050565b6105a66105a182610813565b61089b565b82525050565b60006105b7826107df565b6105c181856107ea565b93506105d1818560208601610856565b80840191505092915050565b6105e68161083d565b82525050565b6105fd6105f88261083d565b6108b7565b82525050565b600061060f8284610595565b60208201915081905092915050565b600061062a82846105ac565b915081905092915050565b600061064182866105ac565b915061064d82856105ac565b915061065982846105ec565b602082019150819050949350505050565b600061067682856105ac565b915061068282846105ec565b6020820191508190509392505050565b600061069e82866105ec565b6020820191506106ae8285610560565b6014820191506106be82846105ac565b9150819050949350505050565b60006020820190506106e06000830184610577565b92915050565b600060a0820190506106fb6000830188610586565b6107086020830187610586565b6107156040830186610586565b6107226060830185610586565b61072f60808301846105dd565b9695505050505050565b600060808201905061074e6000830187610586565b61075b6020830186610586565b6107686040830185610586565b61077560608301846105dd565b95945050505050565b6000604051905081810181811067ffffffffffffffff821117156107a5576107a46108c1565b5b8060405250919050565b600067ffffffffffffffff8211156107ca576107c96108c1565b5b601f19601f8301169050602081019050919050565b600081519050919050565b600081905092915050565b60006108008261081d565b9050919050565b60008115159050919050565b6000819050919050565b600073ffffffffffffffffffffffffffffffffffffffff82169050919050565b6000819050919050565b82818337600083830152505050565b60005b83811015610874578082015181840152602081019050610859565b83811115610883576000848401525b50505050565b6000610894826108a5565b9050919050565b6000819050919050565b60006108b0826108f0565b9050919050565b6000819050919050565b7f4e487b7100000000000000000000000000000000000000000000000000000000600052604160045260246000fd5b60008160601b9050919050565b610906816107f5565b811461091157600080fd5b5056fea2646970667358221220282390857872f8c25eaf19320fd7b5e736ef02cf6c227e00831f3ea66d98c31264736f6c63430008000033",
    "linkReferences": {},
    "deployedLinkReferences": {}
}